:0200000480007A
:100000006F00804A6F00C02A6F0000496F00C0482F
:100010006F0080486F0040486F0000486F00C04785
:100020006F0080476F0040476F0000476F00C04679
:100030006F0080466F0040466F0000466F00C0456D
:100040006F0080456F0040456F0000456F00C04461
:100050006F0080446F0040446F0000446F00C04355
:100060006F0080436F0040436F0000436F00C04249
:100070006F0080426F0040426F0000426F000053EB
:1000800097410100938101BC17010300130181F71F
:1000900017050000130505F713651500731055309B
:1000A000138581F4138681253306A640930500004D
:1000B000EF608011176500001305850BEF40007796
:1000C000EF60000113050000930500001306000017
:0C00D000EF0000016F40C0766780000068
:1000E000130101812326117E2324817E2322917E08
:1000F0002320217F232E317D93060000130101FD73
:10010000130600009305000013050020EF3050098E
:10011000630A051613040500171501001305051DD4
:10012000EF505002732920B0F32900B09715010059
:100130009385C5271306010013050400EF305026F0
:10014000F32420B0B3842441F32200B0171501003A
:100150001305C51A33893241EF50C07E13070900D9
:100160009386040013060900938504001715010007
:100170001305C519EF500058371600001306068006
:1001800097250100938585A213050100EF5050418A
:1001900093090500631E0502171501001305851E4E
:1001A000EF50407A13050400EF40006D1301010386
:1001B0008320C17E138509000324817E8324417E30
:1001C0000329017E8329C17D1301017F678000001F
:1001D0001715010013058516EF50C076B7170000FC
:1001E00013830780130401003309230097140100CF
:1001F0009384C41803162400831504001385040097
:1002000013040402EF50004F031664FE831544FEEE
:1002100013850400EF50004E0316A4FE831584FEE0
:1002200013850400EF50004D0316E4FE8315C4FE51
:1002300013850400EF50004C031624FF831504FFC0
:1002400013850400EF50004B031664FF831544FF31
:1002500013850400EF50004A0316A4FF831584FFA2
:1002600013850400EF5000490316E4FF8315C4FF13
:1002700013850400EF500048E31E24F79309100093
:100280006FF0DFF21715010013050505EF50806BC5
:10029000930910006FF09FF10000000000000000C3
:1002A0001305000067800000130000001300000029
:1002B0001305000067800000130000001300000019
:1002C0001305000067800000130000001300000009
:1002D00013050000678000001300000013000000F9
:1002E00013050000678000001300000013000000E9
:1002F00013050000678000001300000013000000D9
:1003000013050000678000001300000013000000C8
:1003100013050000678000001300000013000000B8
:1003200013050000678000001300000013000000A8
:100330001305000067800000130000001300000098
:100340001305000067800000130000001300000088
:100350001305000067800000130000001300000078
:100360001305000067800000130000001300000068
:100370001305000067800000130000001300000058
:100380001305000067800000130000001300000048
:100390001305000067800000130000001300000038
:1003A0001305000067800000130000001300000028
:1003B0001305000067800000130000001300000018
:1003C0001305000067800000130000001300000008
:1003D00013050000678000001300000013000000F8
:1003E00013050000678000001300000013000000E8
:1003F00013050000678000001300000013000000D8
:1004000013050000678000001300000013000000C7
:1004100013050000678000001300000013000000B7
:1004200013050000678000001300000013000000A7
:100430001305000067800000130000001300000097
:100440001305000067800000130000001300000087
:100450001305000067800000130000001300000077
:100460001305000067800000130000001300000067
:100470001305000067800000130000001300000057
:100480001305000067800000130000001300000047
:100490001305000067800000171501001305D5C67D
:1004A000EF50404A6FF05FFF130101FC2320110061
:1004B0002322A1002324B1002326C1002328D10038
:1004C000232AE100232CF100232E01012320110314
:1004D0002322510223246102232671022328C1030F
:1004E000232AD103232CE103232EF103F32220340A
:1004F00013032000638862021303B0006388620064
:1005000013033000638862006F00C002EF00403EBA
:100510006F004003171501001305C5BAEF50804264
:100520006F004002171501001305C5B4EF5080415C
:100530006F004001171501001305E5BAEF50804028
:100540006F004002F32210340383020013053000D1
:100550003373A3006314A3009382220093822200CA
:10056000739012348320010003254100832581000C
:100570000326C1008326010103274101832781014E
:100580000328C1018328010283224102032381023F
:100590008323C102032E0103832E4103032F810312
:1005A000832FC10313010104730020307300203036
:1005B0003305A04023AEA1F41305F0FF67800000CF
:1005C00097170100938787B6130850053707001067
:1005D0002320070183C61700638006062320D70067
:1005E00083C22700638A02042320570003C3370015
:1005F000630403042320670083C34700638E030260
:100600002320770003C55700630805022320A700B5
:1006100083C56700638205022320B70003C6770005
:1006200093878700630A06002320C70003C80700DA
:10063000E31008FA678000006780000013000000E4
:100640009307800523AEF1F41305F0FF67800000E7
:100650009307800523AEF1F41305F0FF67800000D7
:100660009307800523AEF1F41305F0FF67800000C7
:100670009307800523AEF1F41305F0FF67800000B7
:100680009307800523AEF1F41305F0FF67800000A7
:100690001305F0FF67800000130000001300000046
:1006A0009307C00023AEF1F41305F0FF678000004C
:1006B000B707048023A0A700730050106F0000004C
:1006C0009307800523AEF1F41305F0FF6780000067
:1006D0009307B00023AEF1F41305F0FF678000002C
:1006E000B727000023A2F500130500006780000073
:1006F0009307800523AEF1F41305F0FF6780000037
:100700009307800523AEF1F41305F0FF6780000026
:10071000930780FA23AEF1F4130500006780000010
:100720001305100067800000130000001300000094
:10073000930780FA23AEF1F41305F0FF6780000001
:100740001305F5FF13351500678000001300000046
:100750009307600123AEF1F41305F0FF67800000FA
:100760009307F00123AEF1F41305F0FF678000005A
:100770001305000067800000130000001300000054
:100780009307800523AEF1F41305F0FF67800000A6
:100790001305F0FF67800000130000001300000045
:1007A0009307800523AEF1F41305F0FF6780000086
:1007B0001305000067800000130000001300000014
:1007C000B727000023A2F500130500006780000092
:1007D0001305F0FF67800000130000001300000005
:1007E0001305F0FF678000001300000013000000F5
:1007F0009307200023AEF1F41305F0FF678000009B
:100800009307800523AEF1F41305F0FF6780000025
:100810009307A00023AEF1F41305F0FF67800000FA
:10082000130101FF23202101138981F4832709008B
:1008300023248100232291002326110093840500A4
:1008400013040600638A070213060400938504005C
:1008500017350100130505BFEF0080598320C10043
:1008600013050400032481008324410003290100AF
:100870001301010167800000B7C5010013063000B5
:1008800093850520173501001305C5BBEF004049CE
:1008900093021000232059006FF01FFB130000008B
:1008A00023ACA1F2130500006780000013000000D4
:1008B000138781F3032307003305A3002320A70038
:1008C000637C250097F202009382C2736376550021
:1008D00013050300678000009307C0001303F0FFB7
:1008E00023AEF1F41305030067800000130000003D
:1008F000130101FF23229100232611009307100802
:100900009384050063CC170D9307F00263D6170399
:10091000938008FD9302100563E41202171301008F
:100920001303038393982000338768008323070011
:10093000B385630067800500930E1001638AD80FAA
:1009400093045005170701001307477EB70F0010E7
:1009500023A09F0083471700638E070423A0FF0096
:10096000834027006388000423A01F0083423700D0
:100970006382020423A05F0003434700630C030269
:1009800023A06F00834857006386080223A01F013D
:10099000834367006380030223A07F0083457700C1
:1009A000638A05001307870023A0BF008344070064
:1009B000E39004FA8320C100832441001301010164
:1009C000678000008320C100130E800523AEC1F5AF
:1009D0008324410013010101678000009300F0406F
:1009E000E3C010F79302F03F63D61203938808C068
:1009F0001303F000E36613F5171701001307C78907
:100A0000939328003385E300832505003386E500B2
:100A100067000600130EC00AE38EC8F963461E0382
:100A2000130F9009E388E8F9930F900AE39AF8F11D
:100A3000130F80FA23AEE1F56FF0DFF737250000E2
:100A400023A2A4006FF01FF7930E600DE39AD8EF76
:100A500023ACA1F26FF01FF61308F00123AE01F5ED
:100A60006FF05FF59306200023AED1F46FF09FF492
:100A7000370404802320A400730050106F0000008E
:100A80009304600123AE91F46FF0DFF22320210183
:100A9000138981F42324810013040600032609002E
:100AA00063060602130604000324810003290100E3
:100AB0008320C10093850400832441001735010081
:100AC00013054598130101016F008032B7C601007C
:100AD000130630009385062017350100130585960F
:100AE000EF00002413081000232009016FF09FFB82
:100AF0008327C500638807208328050163840820B5
:100B00000328050003469500032745018346480155
:100B1000B3E2C600A304550013F306026302031EEA
:100B2000B383E84093050001138F030063F475005D
:100B3000130F0001638AE81C338EE700834E0E001A
:100B4000930F1700130610002300D801232AF50184
:100B50006370761AB386F70183C206001303270079
:100B60009305200023005800232A650063F27518BE
:100B7000338E6700834E0E00130637009306300055
:100B80002300D801232AC50063F47616B382C70078
:100B900003C3020093054700130E400023006800C2
:100BA000232AB50063767E14B38EB70083C60E0089
:100BB00013065700930250002300D800232AC500D3
:100BC00063F872123383C70083450300930E6700F6
:100BD000130E60002300B800232AD501637A7E102B
:100BE000B386D70183C20600130677001303700093
:100BF00023005800232AC500637C730EB385C70009
:100C000083CE050093068700130E80002300D801D1
:100C1000232AD500637E7E0CB382D70003C3020073
:100C2000130697009305900023006800232AC5004F
:100C300063F0750CB38EC70083C60E009302A70045
:100C4000130EA0002300D800232A550063727E0AE9
:100C500033835700834503001306B700930EB0009B
:100C60002300B800232AC50063F47E08B386C700BA
:100C700083C206001303C700130EC00023005800F0
:100C8000232A650063767E06B385670083CE050060
:100C90001306D7009306D0002300D801232AC500ED
:100CA00063F87604B382C70003C302009305E7002C
:100CB000130EE00023006800232AB500637A7E0249
:100CC000B38EB70083C60E001306F7009302F00040
:100CD0002300D800232AC50063FC7200B387C70035
:100CE00003C307001307070123006800232AE50058
:100CF00093050000638403009305FFFF3387F5012C
:100D00006384E800678000008348480023280500CA
:100D100013F5D80F2302A80067800000130000001D
:100D2000130101FE232A910083240500232C810056
:100D30002328210123263101232E110023820400C0
:100D400023840400930770FC2384F40023880400A8
:100D50002322B5001304050013890500930906003A
:100D6000930600001386050037D512139305000083
:100D7000EF30C062B7028000637455029350F500F3
:100D8000130700F82386E40013F3F00F13557500E2
:100D9000238264009373F50F23807400238604007C
:100DA0002386340123043401A304040097050000C2
:100DB000938545D4232224018320C10123280400E4
:100DC00023260400232A0400232E0400232C0400DD
:100DD000232204022320B40203248101832441013D
:100DE000032901018329C10013010102678000006A
:100DF000130101FF23260100638C0522630A0622EA
:100E0000032505003386C5009307100303474501FA
:100E1000232601008326C1009372F70F63E2D70AED
:100E20000323C10093031300232671000328C1008C
:100E300063E807098328C100138E18002326C10127
:100E4000832EC10063EED707032FC100930F1F004D
:100E50002326F1010327C10063E4E7068326C100CE
:100E600013831600232661008323C10063EA7704FD
:100E70000328C1009308180023261101032EC10086
:100E800063E0C705832EC100138F1E002326E101F6
:100E9000832FC10063E6F7030327C1009306170001
:100EA0002326D1000323C10063EC67008323C10024
:100EB00013881300232601018328C100E3F217F7EA
:100EC00093F20202E38402F423260100032EC10000
:100ED00063E2C70B832EC100138F1E002326E1019E
:100EE000832FC10063E8F7090327C10093061700A9
:100EF0002326D1000323C10063EE67068323C100CC
:100F000013881300232601018328C10063E4170717
:100F10008322C100138E12002326C101832EC1003B
:100F200063EAD705032FC100930F1F002326F101A9
:100F30000327C10063E0E7048326C1001383160082
:100F4000232661008323C10063E677020328C100E2
:100F500093081800232611018322C10063EC570077
:100F6000032EC100930E1E002326D101032FC100C2
:100F7000E3F2E7F783CF05002300F5012326010004
:100F80000327C10063E2E70A8326C100138316002A
:100F9000232661008323C10063E877080328C1008A
:100FA00093081800232611018322C10063EE57061F
:100FB000032EC100930E1E002326D101032FC10072
:100FC00063E4E707832FC10013871F002326E10096
:100FD0008326C10063EAD7040323C10093031300EF
:100FE000232671000328C10063E007058328C100A0
:100FF0009382180023265100032EC10063E6C70325
:10100000832EC100138F1E002326E101832FC10010
:1010100063ECF7010327C100930617002326D100D4
:101020000323C100E3F267F693851500E390C5DE64
:10103000130101016780000013000000130000008D
:101040006388050E03C605006304060E83270500AA
:10105000130101FF9386150003C747019372F70F31
:10106000A30751000343F100937303026396030A3D
:1010700003C547019375F50FA307B1000348F100BD
:1010800093780802639A080803CE4701937EFE0F07
:10109000A307D101034FF100937F0F02639E0F0658
:1010A00003C747019372F70FA30751000343F100F1
:1010B000937303026392030603C547019375F50F0B
:1010C000A307B1000348F10093780802639608046F
:1010D00003CE4701937EFE0FA307D101034FF1001A
:1010E000937F0F02639A0F0203C747019372F70FB2
:1010F000A30751000343F10093730302639E0300AF
:1011000003C547019375F50FA307B1000348F1002C
:1011100093780802E38208F4938616002380C700C0
:1011200003C6F6FFE31A06F213010101678000000F
:10113000678000001300000013000000130000008F
:10114000630C0602638A0502032705009706000068
:101150009386469A2326B500834747002328C50077
:10116000232A05002320D50293E2270023025700FB
:10117000732340F16304030067800000B723000C71
:10118000172601001306062C83A503003305C5406E
:101190001338150093081000339E0801B36EBE008B
:1011A00023A0D3016780000013000000130000009B
:1011B00083270500034795008326050183C2470165
:1011C00033E3E200A304650093F3F20F6398060093
:1011D00013D5630013751500678000001305000028
:1011E00067800000130000001300000013000000DF
:1011F0009307050063800518630E06160327050094
:101200000345950083464701B3E2A600A384570037
:1012100013F31600630003169373360013050000E2
:10122000638C0308130810006380030793082000F1
:101230006386130303470700130510002380E500AE
:1012400003A7070003CE9700834E470133EFCE017B
:10125000A384E70193FF1E0063820F1283460700F9
:10126000B382A500130515002380D20003A7070051
:1012700003C397008343470133E86300A384070156
:1012800093F81300638C080E034E07003387A50004
:10129000130515002300C70103A7070083CE97009D
:1012A000034F4701B36FDF01A384F70193761F005B
:1012B0006386060C6306A60C83420700B383A50071
:1012C000130515002380530003A8070003CE9700E1
:1012D0003383A5000347480193080500B36EC70197
:1012E000A384D701137F1700630A0F08834F0800F8
:1012F00013051500B382A5002300F30183A30700A3
:1013000083C6970003C343013368D300A384070156
:10131000137E130063040E0603C703001385280021
:10132000B38EA5002380E20003AF070083CF9700B0
:1013300083424F01B3E3F201A384770093F61200D6
:10134000638E060203430F001385380023806E006E
:1013500003A7070083C89700034E470133681E01A7
:10136000A3840701937E1E00638A0E00E316A6F491
:1013700067800000130500006780000067800000A0
:10138000678000001300000013000000130000003D
:10139000F32740F163960702B726000C17270100D8
:1013A0001307470A03A60600B302E54013B3120071
:1013B0009303100033986300B368C80023A016019C
:1013C000370E0100930EFEFF638CD5010325050047
:1013D00093F5F500034F4500B36FBF002302F501FD
:1013E00067800000130000001300000013000000DD
:1013F000638E05029307000C63EAC702032705000A
:10140000232EB5008342870013F3F203B363C300B6
:1014100093F5F30F2304B7000346470093661600C5
:101420002302D700732840F163040800678000009E
:10143000B728000C972E0100938ECE0003AE080053
:101440003305D541133F1500930F1000B397EF01FB
:1014500033E7C70123A0E800678000001300000005
:1014600063840502032705002320B5022326050017
:10147000834747002328050093E2270023025700F3
:10148000732340F16304030067800000B723000C5E
:1014900097250100938505FB83A603003305B5401E
:1014A0001336150013081000B318C80033EED80027
:1014B00023A0C30167800000130000001300000098
:1014C00063800502032705002322B50283474700F6
:1014D00093E2870023025700732340F16304030063
:1014E00067800000B723000C97250100938585F5E0
:1014F00083A603003305B54013361500130810000A
:10150000B318C80033EED80023A0C30167800000E1
:10151000638805126306061283270500834695003B
:1015200003C74701B362D700A30455001373070232
:1015300063080310930300011305060063F4C3005E
:101540001305000103C8050093081000238007015C
:1015500063FAC80E03CE1500930E20002380C70146
:1015600063F2CE0E03CF2500930F30002380E701F6
:1015700063FACF0C83C63500130740002380D700E1
:101580006372C70C83C245001303500023805700C9
:10159000637AC30A83C35500130860002380770071
:1015A0006372C80A83C86500130E70002380170198
:1015B000637ACE0883CE7500130F80002380D70195
:1015C0006372CF0883CF8500930690002380F701D4
:1015D00063FAC60683C295001307A0002380570054
:1015E0006372C70603C3A5009303B000238067009E
:1015F00063FAC30403C8B5009308C0002380070141
:1016000063F2C80403CEC500930ED0002380C70147
:1016100063FACE0203CFD500930FE0002380E701E9
:1016200063F2CF0283C6E5009302F0002380D70067
:1016300063FAC20083C5F5002380B700678000000D
:101640001305000067800000130000001300000075
:10165000832705000347950083C24701A3040500C3
:1016600033E5E2001375E509678000001300000010
:101670008327050003C58701678000001300000071
:1016800003270500834795008342470133E3F200B7
:10169000A304650013F50206678000001300000034
:1016A000032705008347C70093E20704230657007A
:1016B000678000001300000013000000130000000A
:1016C000032705008347C70093F2F70B2306570053
:1016D0006780000000000000000000000000000023
:1016E000130101FC232C91021398250093941500FB
:1016F00013933500B382B400232E8102232A2103E1
:101700002328310323264103232451032322610389
:1017100023207103232E8101232C9101232AA1016F
:1017200023240101232661009317270093942200AC
:10173000631E062A93081000639E1553330EF500AE
:101740003303FE00B307F300138F0600938E0600E9
:10175000B748000083140500831F2500938E8E0078
:10176000139AD400939ADF00B30B9A40B382FA41E4
:10177000338B1B01338912011358FB409353F940FB
:10178000231005012311750003140E0083192E0088
:1017900093864600131CD4001396D900330D8C4059
:1017A000B30C3641B3051D01B3841C0193DFF54032
:1017B00013DAF4402310FE0123114E01831A0300B3
:1017C000831B2300130FCF009392DA00139BDB00DF
:1017D0003389524133087B41B303190133041801A3
:1017E00093D9F340135CF440231033012311830198
:1017F000039D07000396270013054500931CDD0099
:101800009314D600B385AC41B38FC440B38A1F0193
:10181000338A15019355FA4013D4FA402390B70048
:1018200023918700831C2300839BAEFF8313030057
:1018300083948EFF338D7C03031C0E00031B2E004C
:10184000039AC6FF0396E6FF0359C5FF8352E5FFDF
:1018500083194FFF831A6FFF13034300B38F930263
:10186000130E4E00938747001307F7FFB3849403CA
:10187000B3837303B38BAF41B38F1B0113DDFF4001
:10188000931B0D0193DF0B01330DF901931B0D0128
:101890003309F94113DD0B01B30CCB02B383930081
:1018A000B38B1301931F090113D90F0193DFFB4081
:1018B00093940F0193D30401B38B7200B3827240EF
:1018C00033084C0393940201939F0B0193DB0401B3
:1018D00093DF0F01231EA5FF231FF5FF3308984157
:1018E000B30C180193D3FC409392030113D8020167
:1018F000B3843503B3820B01B3830B41B30B5403A1
:10190000330CCC0233867441B304160193DCF440EB
:10191000939B0C0113D60B013308C80093140801E4
:1019200093DC0401330D9D41330B6A03338AC240BB
:10193000231EA3FFB3037600B3855503B30A6C01DE
:10194000B3821A0113DCF240931B0C0113D60B0176
:101950003308C9003309C94033043403B38985000F
:10196000B384190113DDF440131B0D0193550B01D2
:10197000B30AB60093920A0113DC0201B38F8F41C0
:10198000231FF3FF835BC5FF0356E5FF3304B84015
:10199000B38C7C013308CC00231E95FF231F05FF69
:1019A000231F7EFE231E8EFEB3832501239E77FE1A
:1019B000239F47FFE31007DA0324C1038324810335
:1019C0000329410383290103032AC102832A8102D7
:1019D000032B4102832B0102032CC101832C8101C3
:1019E000032D41011301010467800000130610005C
:1019F000639AC550330EF5003303FE00B307F300BE
:101A0000138F0600938E0600B7480000831405006C
:101A100083122500938E8E00939FD400139AD200D8
:101A2000B38A9F40B30B5A40338B1A0133891B0191
:101A30001358FB409353F9402310050123117500FF
:101A400003140E0083192E0093864600131CD40045
:101A50001396D900330D8C40B30C3641B3051D01EC
:101A6000B3841C0193D2F54093DFF44023105E0051
:101A70002311FE01031A0300831A2300130FCF0062
:101A8000931BDA00139BDA0033894B4133085B4127
:101A9000B30319013304180193D9F340135CF440E4
:101AA0002310330123118301039D070003962700B0
:101AB00013054500931CDD009314D600B385AC419B
:101AC000B382C440338A1201B38F150193D5FF400E
:101AD0009354FA402390B70023919700039C8EFF04
:101AE000039BAEFF83120300831C2300831B0E00A5
:101AF000B38F8203831A2E008399C6FF0396E6FFF5
:101B00000354C5FF8353E5FF03194FFF031A6FFF0B
:101B100013034300130E4E00338D6C03938747006D
:101B20001307F7FFB30C9C03B3826203338BAF41FF
:101B3000B30F1B0113DDFF40131B0D01935F0B015E
:101B4000330DF401131B0D013304F441135D0B013C
:101B5000338CCA02B3829201338B1201931F0401AA
:101B600013D40F01935FFB40939C0F0193D20C01A0
:101B7000338B5300B383534033883B03939C03015F
:101B8000931F0B0113DB0C0193DF0F01231EA5FF35
:101B9000231FF5FF33088841330C18019353FC4091
:101BA000939C030113D80C01B3822503B3030B01EB
:101BB000330C0B41338B4403B38BCB02338662412E
:101BC000B302160193DCF240139B0C0113560B0178
:101BD0003308C8009312080193DC0201330D9D41C4
:101BE000B3854503231EA3FFB383C340330C860193
:101BF000B38A5903B3842403B3895B01338A19017F
:101C0000935BFA40139B0B0113560B013308C4403E
:101C10003304C40033899500B302190113DDF24087
:101C2000931A0D0193D50A01B309B600139A09015D
:101C3000935B0A01B38F7F41231FF3FF035BC5FF53
:101C40000356E5FFB3840501B38C6C013388CB00E8
:101C5000231E95FF231F05FF231F7EFE231E9EFECE
:101C6000B303B440239E77FE239F87FFE31007DA78
:101C70006FF09FD4B30FF500338FFF002328B1011D
:101C8000B307FF00938A0600138A0600B7480000D6
:101C9000831D0500831E2500130F4F00139EDD00DA
:101CA0001393DE00330CBE413304D34133091C01CE
:101CB000B3021401135DF94093D5F2402310A5013E
:101CC0002311B50083990F00839B2F00938F4F0042
:101CD000139BD9001396DB00B30C3B4133087641CC
:101CE000B3831C01B30D180193DEF34013DEFD40F6
:101CF000239EDFFF239FCFFF0313CFFF031CEFFFC4
:101D0000130545001314D3001319DC00B30264401B
:101D1000330D8941B3851201B3091D0193DBF540F1
:101D200013DBF940231E7FFF231F6FFF839C0700F7
:101D300003962700938747001398DC00931DD60075
:101D4000B3039841B38ECD4033831301338E1E010C
:101D50009353F340135EFE40239E77FE239FC7FFFD
:101D600083190A0003132A00031DCFFF831CEFFF12
:101D7000832D8100832EC10003990600039626005F
:101D8000330ADA01B386B601B30E3D03039CCFFFDD
:101D9000839BEFFF8352C5FF0354E5FF039B0A00BB
:101DA00003982A001307F7FFB38A9A00B38D6C02D9
:101DB000B389990333036D02338DBE41B30E1D0108
:101DC00093DDFE40139D0D01935D0D01B38EB201B5
:101DD000139D0E01B382B241935E0D01B38CCB0211
:101DE00033033301330D1301939D020193D20D018F
:101DF000935DFD4093990D0113D30901330D6400E8
:101E000033046440B3052C0313130401931D0D0127
:101E1000135D030193D90D01231ED5FF231F35FF49
:101E2000B3859541B38C150113D4FC401313040101
:101E300093550301B38D63033304BD00B30CBD4060
:101E4000330D0E033306CC02338CAD41B30D1C01B0
:101E500013D3FD40131D0301135C0D01B3858501F0
:101E6000939D050113DD0D01B38EAE413309790356
:101E7000B30B8441231EDFFFB30C9C01B383030328
:101E800033082601330418011356F44013130601D6
:101E9000135C0301B3858201B3828241330E6E036A
:101EA000338BC301B30D1B0193DEFD4013990E016B
:101EB00013580901B3030C011394030113560401D1
:101EC000B389C940231F3FFF0353C5FF035CE5FFF0
:101ED000338E0541330D6D00B3058601231EA5FF2A
:101EE000231FB5FE239F9FFF239ECFFFB30C5800F7
:101EF000239E97FF239F77FFE31C07D8832D0101C3
:101F00006FF09FABB302F500B38FF2002328B1014D
:101F1000B387FF00938A0600138A0600B7480000C3
:101F20008313050003142500938F4F009395D3006E
:101F30001319D400B3897540330B8940B38B190151
:101F4000330C1B0193DCFB40135DFC402310950117
:101F50002311A501839D0200039E2200938242006B
:101F6000939EDD00131FDE003388BE413303CF4153
:101F7000B30318013306130113D4F3409355F6400D
:101F8000239E82FE239FB2FE0399CFFF8399EFFF2A
:101F900013054500131BD900939BD900330C2B412B
:101FA000B38C3B41330D1C01B38D1C01135EFD400E
:101FB00093DEFD40239FDFFF239ECFFF039F07009B
:101FC00003982700832D81001313DF001316D80018
:101FD000B303E3413304064133091401B38513010C
:101FE00093D3F540935EF940239077002391D70176
:101FF00083190A0003132A00039DCFFF839CEFFF80
:10200000032FC1000399060003962600330AEA0154
:10201000B386B601330F3D03039CC2FF839BE2FFEF
:10202000035EC5FF0354E5FF039B0A0003982A00E3
:10203000938747001307F7FFB38A9A00B38D6C02AA
:10204000B389990333036D02330DBF41330F1D0173
:10205000935DFF40139D0D01935D0D01330FBE0194
:10206000131D0F01330EBE41135F0D01B38CCB0264
:1020700033033301330D1301931D0E0113DE0D01E4
:10208000935DFD4093990D0113D30901330D640055
:1020900033046440B3052C0313130401931D0D0195
:1020A000135D030193D90D01231EE5FF231F35FFA7
:1020B000B3859541B38C150113D4FC40131304016F
:1020C00093550301B38D63033304BD40B30CBD00CE
:1020D000338D0E033306CC02338CAD41B30D1C019E
:1020E00013D3FD40131D0301135C0D01B38585015E
:1020F000939D050113DD0D01330FAF4133097903C2
:10210000B30B8C00239EEFFFB38C8C41B38303038E
:1021100033082601330418011356F4401313060143
:10212000135C0301B3058E41330E8E01B38E6E0333
:10213000338BD301B30D1B0113DFFD4013190F01C6
:1021400013580901B3030C0113940301135604013E
:10215000B389C940239F3FFF0353C5FF035CE5FFDD
:10216000B30EB800330D6D00B3058601231EA5FF25
:10217000231FB5FE239F92FF239ED2FFB30C0E4177
:10218000239E97FF239F77FFE31C07D8832D010130
:102190006FF09F8213000000130000001300000086
:1021A0009397260013071000B307F5006392E51C10
:1021B00013F816009382F6FF630C080883160500D7
:1021C000031E250013D31640935E1E402311D50134
:1021D00023106500839F07000397270013DF1F402C
:1021E000935317402390E70123917700831805004C
:1021F00083150600035E2500035326001398030190
:10220000939E080193160F01935F0801139F050128
:1022100033E7CE01B3E3F601B3686F00FB057788BF
:1022200013DE05012310C5012311B5007B03778A56
:10223000935E03012390D7012391670093860200E8
:102240001306460093874700130545006386022E58
:10225000831205000318250093DF1240135F184016
:102260002310F5012311E50103970700839327004D
:102270009355174093D813402390B700239117012B
:10228000831E050083120600035E2500035326000B
:1022900013980801939F0E01139F050193530801A2
:1022A0009398020133E7CF01B3657F00B3EE680076
:1022B000FB02B7E813DE02012310C501231155000C
:1022C0007B03B7EA935F0301239167002390F70133
:1022D000031F4500031865009303450093581F40F2
:1022E00023121501135718402391E30083954700EB
:1022F000839E67009382470013DE15402392C70137
:1023000013D31E4023916200831F4500031846002B
:1023100003DF2300835E66009318030193150E010B
:1023200013970F0113DE080113130801B36FE701C0
:102330003368D30133EFC5017B87EF81935E0701DB
:102340002312D5012391E300FB83EF8393D503018F
:102350002392B700239172009386E6FF130686004E
:102360009387870013058500E39406EE67800000DD
:1023700093F21600139825001383F6FF638C02086E
:10238000831605008313250093D5164093D8134078
:102390002310B50023111501039E0700839E27001B
:1023A000135F1E4093DF1E402390E7012391F70146
:1023B000031705008312060083532500035E2600E1
:1023C00093950F01931E070193160F0193D80501F2
:1023D000139F0201B3EF7E0033E71601B362CF0112
:1023E000FB83EF2813DE03012310C50123117500C1
:1023F000FB8EEF2A93D60E012390D7002391D701AD
:102400009306030033060601938747001305450032
:102410006306031203130500831825009355134028
:1024200013DF18402310B5002311E501839F070037
:102430000397270093D21F409353174023905700D0
:10244000239177008318060003130500835E25009F
:10245000035E2600939F030193950201131F03015E
:1024600093D20F01939308013367DF01B3E8C301EF
:10247000B3EE55007B03D789135E03012310C5011A
:10248000231165007B0FD78B93550F012390B70065
:102490002391E701831F45008312650093034500E4
:1024A00013D71F402312E50093DE12402391D3017E
:1024B0008398470003936700138E470093D5184015
:1024C0002392B7009352134023115E003306060196
:1024D000831E06000317450083DF2300035F2600E9
:1024E000939802011317070193920E01939505012A
:1024F00013D30801B36EF701B3EF650033E7E201D0
:10250000FB85FE7113DF05012312E5012391B30062
:10251000FB83FE7393D803012392170123117E00DE
:102520009386E6FF3306060193878700130585002F
:10253000E39206EE6780000067800000678000007D
:10254000130101F88328470023244107032A0700C9
:102550002326B105938D060033081A03232A91051B
:10256000232E1106232C8106232A910623263107C8
:10257000232C81052328A105232821072322510785
:10258000B38CCD029310280023206107232E710500
:102590002328110193061000930906001304050077
:1025A00093840500138C0700330D1500939C2C00B9
:1025B0006388D840330BCA0213098700939B280015
:1025C000930A05009385040013850A0093070C0005
:1025D0001307090093860D0013060B00EFF05FF65A
:1025E000B38A7A01B384940193070C00130709009E
:1025F00093860D0013060B0013850A0093850400D3
:1026000063025D11EFF0DFF3B38A7A01B3849401C2
:1026100093070C001307090093860D0013060B00A7
:1026200013850A0093850400630E5D0DEFF05FF1E2
:10263000B38A7A01B384940193070C00130709004D
:1026400093860D0013060B0013850A009385040082
:10265000630A5D0BEFF0DFEEB38A7A01B384940175
:1026600093070C001307090093860D0013060B0057
:1026700013850A009385040063065D09EFF05FECA3
:10268000B38A7A01B384940193070C0013070900FD
:1026900093860D0013060B0013850A009385040032
:1026A00063025D07EFF0DFE9B38A7A01B384940136
:1026B00093070C001307090093860D0013060B0007
:1026C00013850A0093850400630E5D03EFF05FE756
:1026D000B38A7A01B384940193070C0013070900AD
:1026E00093860D0013060B0013850A0093850400E2
:1026F000630A5D01B38A7A01EFF09FE4B384940129
:10270000E3125DED130D40000329CC00E304AA475A
:10271000634C4D43130E2000630ECA259300300016
:10272000E31E1A1683280101939C2900930E1000C2
:10273000338C9803139F2800B306E401373A000056
:10274000B30F8901839D2F00E398D94F3385E601AC
:10275000130C0900930CAAAA374D0000831904003A
:10276000031624001304440033889903938646001B
:102770001305450013094900130C8C009388F8FFDA
:10278000330A96033307A801135BF740231E64FF47
:10279000B30EAA0193D5FE40231FB4FE039FC6FFCC
:1027A0008390E6FF33039F03B38B9003B304A3012D
:1027B00093DAF440239E56FFB382AB0193D3F240E9
:1027C000239F76FE031EC5FF831FE5FFB3079E030D
:1027D000B3899F033386A7011358F640231E05FFD4
:1027E000338AA9019355FA40231FB5FE031FC9FF81
:1027F00003138CFF831BACFF8310E9FF8394C6FF98
:10280000839EE6FFB30203038353C4FF33079F0293
:10281000338BD003B38ABB02330E6741B30FAE01D3
:1028200093D7FF409399070113DA0901B38EEE03A2
:1028300033865241330FA6019352FF401397020192
:10284000135B0701330E4B01931A0E01B3096A4162
:1028500093DF0A41B380900293D71F40B383F340C4
:10286000239E76FE139A090193520A418354E4FF92
:10287000B305B30233831E00B30EA30113D6FE408B
:10288000131F060113570F0133880B03B38B050188
:10289000338BAB01935AFB40939F0A0193D70F01EF
:1028A000B303F7409390030193D90041338AE700C3
:1028B000B385B90313130A01935E034113D61E4077
:1028C000B384C440239F96FE0357E4FF035FC4FF15
:1028D0003308EA00B382B203330EEE01231EC4FFB5
:1028E000231F04FF338BA50183DBC6FF935AFB40F4
:1028F000939F0A0193D30F01B3877301231EF5FE43
:10290000B389A20183D0E6FF13DAF94093150A01D7
:1029100013D30501B38E6040231FD5FF03D6C6FF36
:10292000B3047640239E96FE03DFE6FF3307E30100
:10293000239FE6FEE39408E28320C1070324810776
:1029400083244107032901078329C106032A81063D
:10295000832A4106032B0106832BC105032C810525
:10296000832C4105032D0105832DC10413010108AA
:1029700067800000130504000324810783260101FA
:102980008320C10783244107032A8106832A410645
:10299000032B0106832BC105032C8105832C4105E4
:1029A000032D0105832DC104130609009385090039
:1029B000032901078329C106130101086FF04FFEA7
:1029C000B307AD409382C7FF13D3220093031300D4
:1029D00013F57300130704006302050C6302150B63
:1029E000930520006302B508130630006302C50694
:1029F000130E40006302C505930E50006302D50319
:102A0000130F6000E31CE52183DD0400130747007A
:102A1000231EB7FF83D62400B3849401231FD7FE5F
:102A200083D0040013074700231E17FE03DB240096
:102A3000B3849401231F67FF03D9040013074700E1
:102A4000231E27FF83DB2400B3849401231F77FF19
:102A500083DA040013074700231E57FF83D724009F
:102A6000B3849401231FF7FE83D2040013074700A9
:102A7000231E57FE03D32400B3849401231F67FE53
:102A800083D3040013074700231E77FE03D52400D9
:102A9000B3849401231FA7FEE306EDC683D8040088
:102AA000338E940113070702231017FF83D42400E9
:102AB000B30E9E01338F9E01231197FE835F0E009C
:102AC000B3059F01338695012312F7FF03582E00AB
:102AD000B30D9601B3809D01231307FF83D60E002B
:102AE000B38490012314D7FE03DB2E00231567FF68
:102AF00003590F00231627FF835B2F00231777FF4F
:102B000083DA0500231857FF83D725002319F7FE22
:102B100083520600231A57FE03532600231B67FE29
:102B200083D30D00231C77FE03D52D00231DA7FEA4
:102B300083D80000231E17FF03DE2000231FC7FFDA
:102B4000E31EEDF46FF01FBC930C500063189A5510
:102B500083240101338C9902139A2400B30E44019B
:102B6000338F4E01B30F4F01338A4F0193152C0061
:102B70003307B900B30DB700031607000318270089
:102B800083900D00232AC100232201012326110274
:102B9000039C2D00E35290DA93961900338B360193
:102BA000930C0900939B2900939A39003729000060
:102BB00093172B009399490023287103232A51036B
:102BC000232EF102232C3103938B0C0023240100CC
:102BD000130E9999B7400000232C910123209101F5
:102BE000831304000315240013044400B384C303B7
:102BF000938E4E00130F4F0083288100938F4F0058
:102C0000130A4A00138D18002324A101B305C5033C
:102C100033871400935DF740231EB4FF33861500FD
:102C20001358F640231F04FF8396CEFF039BEEFF4D
:102C30003389C603B30ACB03B307190093D9F7400E
:102C4000239E3EFFB3821A0013D3F240239F6EFEF1
:102C50008313CFFF0315EFFFB388C303330DC50301
:102C6000B384180093D5F440231EBFFE8324810152
:102C70008325010033071D00935DF740231FBFFF2D
:102C80000396CFFF0398EFFFB306C603330BC803C9
:102C900033891600935AF940239E5FFFB3071B0048
:102CA00093D9F740239F3FFF8312CAFF8313EAFFA4
:102CB000138B04003383C2033385C303B3081300AB
:102CC00093D7F840231EFAFE330D15001358FD402C
:102CD000231F0AFF839D0400031DCFFF0397EFFF0F
:102CE0008396240083930500039325003305BD03D9
:102CF0008314EFFF8398CFFF2322E102232EB1013B
:102D000083254103832D010383920C0003972C003C
:102D1000330BBB00B38CBC0183250100832DC103A1
:102D2000232C61010396CEFF338BB501B385D4020A
:102D3000832D81032320610103990B002326C10009
:102D400003962B00B38BBB01232011038359C4FFCF
:102D5000839AEEFF3305B540330B1500935DFB40BE
:102D6000032B410293950D01B388780213D5050119
:102D7000232421030359E4FFB3056B02B306DD02EC
:102D8000338DB840B3081D0093DDF84093950D01D5
:102D900093D80501330D1501931D0D0193D50D0138
:102DA00033051541139D0501931805010325C10144
:102DB000935D0D4113DD08412322A103338D3501BD
:102DC00083250102B3049502232E5101B3836303CB
:102DD000B3869600B388160013D5F8409314050106
:102DE00013D50401338365028325C10033037300C7
:102DF000B308130093D4F840139B0401B386550223
:102E000093550B01B303B50013930301135B030147
:102E10003305B540B3032B0193180B01032B81023B
:102E2000931405013383EA0293D5044193D80841F2
:102E3000B3866640B38416003385670393DAF440A3
:102E400013930A01832AC10093560301B304C802F5
:102E500033059540330315009354F3403387EA025A
:102E6000939A040113D30A01338566009314050174
:102E700013D50401931A050193D40A41832AC10191
:102E8000330DA501B387C702B3866640231EA4FF96
:102E90001393060193560341B38252033308680328
:102EA00033065700330716001355F7401313050177
:102EB000935A0301B3820701338D12009357FD40EB
:102EC00013960701032DC102135706013385EA004B
:102ED000131305013385AD03135B030113180B01B5
:102EE000B3037B0093570841B38AEA4093920A01E7
:102EF00013D70241231F74FE33031500135BF34005
:102F0000032341013386A803B38A6901338864022D
:102F1000330516009353F54033067900338B67026F
:102F2000B302180013D8F240B38A0A0113950A01BC
:102F3000832A410013580501330B1B009352FB40B9
:102F400033065600330557039313060113DB0301C1
:102F500033868503330515001355F540B30316007A
:102F600013D6F3403305C500B3825603931A050107
:102F700013D60A01832A4102B303C8403305C800AF
:102F8000239E7EFE33888A03B382120013D6F2405A
:102F9000B3886802330818009352F840330656008D
:102FA0009313060113D80301B3020B01239F5EFEA6
:102FB000231EAAFE330B0B41B38D6D02338618001E
:102FC000832841009353F64033097900231F6AFF99
:102FD000B384A40333851D00935DF540B389B90123
:102FE000B387A703338D14001358FD40B382090142
:102FF000139B0201935D0B01B38515033383170007
:103000001355F340B309A9009394090193D3040124
:1030100033078703338615001359F64093170901C8
:1030200013DD0701B3868603330817009352F84077
:10303000139B020193550B013303BD40B389A54196
:1030400033856D008325010103238100B38A1A03B0
:10305000B388160093D4F840139704011356070160
:10306000231EAFFEB38D3D0133891A009357F940FB
:10307000139D070193560D013308D640B382030117
:10308000338BC640231F5FFEB3836301239EBFFFC4
:10309000239F7FFEE39665B46FF01F8A931C2A007E
:1030A00013850C0083240C00EF10407CE300050620
:1030B000832D01016356B03393081000138D0D006A
:1030C00063961D57635E4031938DCCFF93D32D00E3
:1030D000B78500001383F5FFB70A010093FF1300C3
:1030E000334C4303130E04003383AC001306050076
:1030F00093060400B74C0000138BFAFF63940F048F
:10310000031F0400831224001306450093064400A5
:10311000B3078F0333878203338897019350F840B6
:10312000939E000193D80E01B3FB6801330D970104
:10313000935DFD4093930D01B3EF7B002320F501D8
:103140006300C30883950600839A4600039F260008
:103150008392660033878503130686009386860074
:10316000B3878A03330897019350F840939E000178
:1031700093D80E01B3FB6801330D8F03B38D970114
:1031800093D3FD40939F030193D50F01B3FA6501DB
:10319000B3828203330F9D011357FF40931707013A
:1031A00033E8FB00232C06FFB380920193DEF0404E
:1031B00093980E01B3EB1A01232E76FFE314C3F8A4
:1031C000835F050083522500130C10002310F401C7
:1031D0002311540063068A21130F00009308000096
:1031E000930E450037480000B30CD341138BCCFF3E
:1031F00013562B00137D160083160400831724003A
:1032000093850E001306000063140D061386080054
:1032100063C4980033869840931D2600B303B90118
:10322000839A23008390030003970E00839B2E0054
:1032300093854E00B30C1702338C5B03330B57039B
:10324000338D8C41B30D0D0193D3FD40B386D30074
:10325000939A060193D60A412310D400B3807003D9
:1032600033071B00B30B070193DCFB406F00400DDD
:10327000330616016344960033069640131C26005D
:10328000330B8901831D2B00031D0B00839A05005E
:103290008390250033061601B383AA039385450066
:1032A000B38BB0033387BA03B38C7341338C0C01F7
:1032B000135BFC40B306DB00939D060193D30D41E5
:1032C00023107400330D1D02B30AA701B3800A0155
:1032D00093DBF040B387FB0013970701935C074132
:1032E000231194016344960033069640131C260074
:1032F000330B8901031D2B00831D0B00839A0500EE
:103300008390250093854500B386BA03B38BA00351
:10331000B387AA0333877641330C0701135BFC4064
:10332000B3037B00139D030193560D412310D4007A
:10333000B38D1D02B38AB701B3800A0193D7F04061
:10334000B3879701939C070193D70C412311F40095
:10335000E310B3F2130F1F00130E4E00B3883801B1
:103360006300EA0913040E002310FE0123115E001E
:103370006FF09FE7130504000324810703264C0028
:10338000032701018320C10783244107032A810603
:10339000832A4106032B0106832BC105032C8105DB
:1033A000832C4105032D0105832DC10493060900DB
:1033B00093850900032901078329C1061301010828
:1033C0006FE00FB2832081000325C1008326010135
:1033D0009386160013044400330C9C016396D02896
:1033E000032481078320C1078324410703290107A0
:1033F0008329C106032A8106832A4106032B01067D
:10340000832BC105032C8105832C4105032D010568
:10341000832DC104130101086F10004683DF0400EF
:10342000130744002310F40103D82400B38494014B
:10343000231104016FF04FDD939939003388E601C1
:1034400013050900130DAAAA37460000831B0400C8
:10345000831A240013044400B384AB03938646000C
:10346000130848009388F8FFB387AA033387C40082
:103470009352F740231E54FE338BC7009353FB40F7
:10348000231F74FE8395C6FF0393E6FF338EA503C7
:10349000B300A303330CCE00935EFC40239ED6FF03
:1034A000338FC000935FFF40239FF6FF031AC8FFCE
:1034B000831BE8FFB30AAA03B384AB03B387CA0034
:1034C00093D5F740231EB8FE3387C4009353F740CB
:1034D000231F78FE83120900031E050083102500B8
:1034E00003132900839FC6FF039BE6FF338FC503A9
:1034F000035AC4FF3309990133053501B38E5F02C6
:10350000330C6B02B38B1302B38A8E41B384CA00AF
:1035100093D7F44013970701935E070133836F023B
:10352000B30F7F41338FCF00135CFF40931B0C011F
:1035300093D40B01B38F9E00939A0F0193D70A4146
:1035400013D71740338B6203330AEA40239E46FFAA
:10355000B38E9E40139F0E01135C0F418352E4FF14
:10356000B3851502B30063013383C000935BF3405E
:1035700093940B0193DA0401B383C303338E750074
:10358000B307CE0013D7F740131A0701135B0A01E4
:10359000B38E6A41139F0E0193550F41B3806A01A8
:1035A0003383B503939B000193D40B4193DA14400A
:1035B000B3825241239F56FE8353C4FF035EE4FF50
:1035C000B38F7F00330CBC03B387C001231FF4FE0D
:1035D000231EF4FF330AC30003D7C6FF135BFA4070
:1035E000931E0B0193D50E01338FE500231EE8FFD8
:1035F0003303CC0083D0E6FF935BF34093940B013D
:1036000093DA0401B3825041231F58FE83D3C6FFCF
:10361000338EB340239EC6FF83DFE6FFB387FA01F4
:10362000239FF6FEE39408E26FF00FB193800D0044
:10363000B38DB903378E0000B70201001308FEFFF7
:10364000938BF2FFB385AC0093132D00130C000095
:10365000930600002322010137430000232071015B
:10366000930F4500938C0900E35440D7338BA5405A
:10367000832E4100930ACBFF93D72A0093F91700BA
:1036800033C64E03130D0500130E040063960904A0
:10369000031F04000317240083270100130D4500B6
:1036A000330E7400B308CF023308C702B382680038
:1036B00093DBF240139B0B01935A0B01B3F9FA0011
:1036C000B30E680013DFFE4013170F01B3E8E900E3
:1036D00023201501630CBD0633087E0083120E0003
:1036E000831B2E00031B0800831A2800B387C20225
:1036F000330E780083280100130D8D00B389CB02AF
:10370000B38E670013DFFE4033771F013308CB020F
:10371000B382690093DBF240139B0B01B36767012F
:10372000232CFDFEB38ACA02B309680093DEF94078
:1037300033FF1E01B3886A0013D7F840131807013E
:10374000B3620F01232E5DFEE318BDF8035B050095
:10375000835A25001306100023106401231154011D
:10376000130E0400E306CAC6130F040093020C00F4
:1037700093090000232411002326A1002328D1004F
:103780003385F5419300C5FF93D6200013FD160045
:10379000831E0E0083172E0013860F009306000071
:1037A00063140D069386020063C49200B3869240B0
:1037B000939B2600B30879010398080083902800A2
:1037C00003970F00839B2F0013864F0033050703D9
:1037D000338D1B02B3081702B300A5413387600085
:1037E0001355F740B30ED501139D0E01935E0D41A5
:1037F0002310DE0133087803B38B0801B3886B0014
:1038000013D7F8406F00400DB386560063C496008E
:10381000B3869640139726003305E90083102500F0
:1038200003180500831B060083182600B386560084
:1038300033850B031306460033871B02338D1802B2
:1038400033081803B300A541B38B600013D5FB40C8
:10385000B30ED501139D0E0193500D4123101E0090
:10386000B308070133876800935BF740B387FB0019
:1038700013950701135705412311EE0063C4960009
:10388000B3869640939E2600330DD90183180D0010
:1038900083172D0003150600831B26001306460020
:1038A00033081503B38EFB02330DF502B307D8417D
:1038B000338567001358F540B3001800939E00014C
:1038C00093DE0E412310DE01B3887803B30B1D0194
:1038D000338D6B009357FD40B387E700939007014A
:1038E00093D700412311FE00E390C5F2938919009C
:1038F000330F7F00B382B201E3063AAD130E0F001F
:1039000023106F0123115F016FF09FE7170401007F
:1039100003240421032904001306700193051000F9
:103920008326C90017F500001305C52AEF10904B38
:10393000032A040093051000130690018326CA0091
:1039400017F500001305852AEF10D04983240400E1
:10395000032481078320C10783A5C400032901072D
:10396000832441078329C106032A8106832A41064D
:10397000032B0106832BC105032C8105832C4105F4
:10398000032D0105832DC1041305A00013010108B7
:103990006F105026130000001300000013000000F9
:1039A000130101FE232C810093073500232E110003
:1039B00013040500139527006380060663020604BE
:1039C00083A0060063EEA00223A0A6001305060054
:1039D0008320C10123208500032481019702010077
:1039E00083A2C213170301000323C3132322B500CC
:1039F000232655002324650013010102678000007F
:103A000023A0A600130500008320C1010324810127
:103A100013010102678000002326B100EF0010654A
:103A20008325C100E31605FA130500006FF0DFFDE2
:103A3000130101FE232C8100232E11001304050025
:103A40006382C502032784009307040003248101D5
:103A50008320C101130506001306100013010102A3
:103A60006FE01FAE232A910093840500638805064A
:103A700003250500232821012326310113152500E4
:103A800013890600EF00905E930905006308050A9C
:103A9000032784009307040093060900938504001C
:103AA00013061000EFE0DFA9032604009385090048
:103AB0001385040013162600EF20C07E0324810125
:103AC00083244101032901018320C10113850900D9
:103AD0008329C100130101026F00105A97040100ED
:103AE00083A4040483A0040013067001930510004E
:103AF00083A6C00017F5000013050511EF10902EE6
:103B000083A30400930510001306100183A6C300CD
:103B100017F500001305C510EF10D02C83A5040085
:103B2000832441011305A00083A5C500032481015E
:103B30008320C101130101026F10D00B1704010093
:103B4000032404FE8327040013067001930510006C
:103B500083A6C70017F500001305C50DEF109028C8
:103B600083220400930510001306800183A6C2007F
:103B700017F500001305850DEF10D0260323040070
:103B800083244101032901018325C3008329C10046
:103B90001305A0006FF09FF9130000001300000050
:103BA000130101FF232481002326110013040500C3
:103BB0006384C50203278400930704000324810063
:103BC0008320C100130506009306100013061000A1
:103BD000130101016FE0DF96232291009384050019
:103BE0006382050603250500232021011315250006
:103BF000EF00D047130905006306050A0327840078
:103C00009307040093850400930610001306100028
:103C1000EFE01F93032604009305090013850400B9
:103C200013162600EF20006803248100832441003E
:103C30008320C100130509000329010013010101BC
:103C40006F0090439704010083A484ED83A00400D7
:103C5000130670019305100083A6C00017F500003D
:103C6000130585FAEF10101883A3040093051000C4
:103C70001306100183A6C30017F50000130545FACB
:103C8000EF10501683A50400832441001305A00003
:103C900083A5C500032481008320C1001301010115
:103CA0006F10407517040100032484E78327040084
:103CB000130670019305100083A6C70017F50000D6
:103CC000130545F7EF10101283220400930510002E
:103CD0001306800183A6C20017F50000130505F73F
:103CE000EF10501003230400832441000329010036
:103CF0008325C3001305A0006FF0DFF91300000057
:103D00006780000013000000130000001300000093
:103D10009377150093063000130750001308100026
:103D2000639407189307050013D6F701B302F60052
:103D300093D7124013D3F70193F51700B303F300A1
:103D40006394050893D7134093D8F70193FE1700A7
:103D5000338EF800639A0E0693571E4013DFF70167
:103D600013F61700B30FFF006310060693D71F402A
:103D700093D2F70193F317003383F20063960304A1
:103D80009357134093D5F70113FE1700B388F5003E
:103D9000631C0E0293D7184093DEF70193FF1700C0
:103DA000338FFE0063920F0293571F4013D6F70123
:103DB00013F31700B302F6006318030093D7124001
:103DC00093F31700E38203F6B3E5D7026392050687
:103DD000B3C7D702B3E8D702639C0804B3C7D702BE
:103DE00033EED70263160E04B3C7D702B3EED70281
:103DF00063900E04B3C7D70233EFD702631A0F02E2
:103E0000B3C7D702B3EFD70263940F02B3C7D70289
:103E100033E6D702631E0600B3C7D702B3E2D70268
:103E200063980200B3C7D70233E3D702E30203FA71
:103E3000B3E3E70263920306B3C7E702B3E5E70221
:103E4000639C0504B3C7E702B3E8E702639608047E
:103E5000B3C7E70233EEE70263100E04B3C7E7020D
:103E6000B3EEE702639A0E02B3C7E70233EFE7024D
:103E700063140F02B3C7E702B3EFE702639E0F00BC
:103E8000B3C7E70233E6E70263180600B3C7E702E9
:103E9000B3E2E702E38202FA635CF800130515005F
:103EA00093771500E38007E8930705006FF0DFF1D3
:103EB000678000000000000000000000000000001B
:103EC0001308000063C6051263DC0600B337C000A8
:103ED000B306D0401348F8FFB386F6403306C0401F
:103EE000930806001307050013830500639A060E66
:103EF00063F4C516B70701006364F622B707000133
:103F0000930680016374F60093060001B7370180C1
:103F1000335ED600938747C6B387C70183C70700C0
:103F2000130E0002B387D700B306FE40630CFE00F9
:103F30003393D500B357F500B318D60033E36700C9
:103F40003317D50013D608013355C30293960801E1
:103F500093D60601935707013373C302B385A602B4
:103F600013130301B3E7670063FCB700B387F800DE
:103F70001303F5FF63E4170163E6B740130503007D
:103F8000B387B740B3D5C70213170701135707010B
:103F9000B3F7C702B386B602939707013367F700FA
:103FA000637ED7003387E8009387F5FF63661701C8
:103FB0009385E5FF6364D70093850700131505011A
:103FC0003365B50093050000630A0800B337A0000D
:103FD000B305B040B385F5403305A04067800000CD
:103FE00063F4D50293050000130500006FF0DFFDB8
:103FF000B337A000B305B040B385F5403305A0400A
:104000001308F0FF6FF05FECB707010063E8F61EDE
:10401000B70700019308800163F4F60093080001DC
:10402000B737018033D71601938747C6B387E700B8
:1040300003C707009307000233071701B388E7405F
:104040006396E71C63E4B6303335C50013351500BD
:10405000930500006FF05FF7630C060CB7070100D3
:10406000637CF62C13330610133313001313330041
:10407000B3566600B7370180938747C6B387D7002A
:1040800083C6070093070002B3866600B38ED7404D
:104090006394D70CB386C54013530601131606016B
:1040A000135606019305100033D566029357070196
:1040B000B3F66602330EC50293960601B3E7D70046
:1040C00063FCC701B387F8009306F5FF63E41701AB
:1040D00063E4C72B13850600B387C741B3D66702D5
:1040E0001317070113570701B3F767023386C60298
:1040F000939707013367F700637EC7003387E800B3
:104100009387F6FF636617019386E6FF6364C70033
:1041100093860700131505013365D5006FF0DFEABC
:104120009336061093B61600939636006FF01FDE96
:10413000B737018093060000938747C6B387D7003F
:1041400083C607001303000093070002B3866600CE
:10415000B38ED740E380D7F4B318D60133DED50051
:1041600013D30801B3576E021396080113560601C4
:10417000B356D5003317D501B395D501B3E6B600D4
:1041800093D50601337E6E023305F602131E0E012F
:10419000B3E5C50163FEA500B385B800138EF7FF34
:1041A00063E4151D63F2A51C9387E7FFB385150132
:1041B000B385A54033D565029396060193D60601D3
:1041C000B3F56502330EA60293950501B3E6B6007A
:1041D00063FEC601B386D8009305F5FF63EE16179C
:1041E00063FCC6171305E5FFB38616019395070117
:1041F000B386C641B3E5A5006FF01FEB93B8061078
:1042000093B81800939838006FF09FE1B35EE60012
:10421000B3961601B3EEDE0033D3E50013DF0E01D3
:10422000B357E303139E0E01B3951501135E0E0100
:104230003357E5003367B70093560701331616016D
:104240003373E303B305FE0213130301B3E6660001
:1042500063FEB600B386DE001383F7FF63EAD61170
:1042600063F8B6109387E7FFB386D601B386B640EE
:10427000B3D5E6031317070113570701B3F6E60397
:104280003303BE02939606013367D700637E67004F
:104290003387EE009386F5FF6364D70D6372670C76
:1042A0009385E5FF3307D70193970701370F010087
:1042B000B3E7B7009306FFFFB3F5D70013DE07019E
:1042C000B376D60013560601B38ED5023307674086
:1042D000B306DE0213D30E01B385C502B385D50044
:1042E000B305B300330ECE0263F4D500330EEE01F6
:1042F00093D60501B386C601636AD7026308D70067
:1043000013850700930500006FF01FCCB70601006E
:104310009386F6FF33F7D50013170701B3FEDE00CF
:10432000331515013307D701E37CE5FC1385F7FF4F
:10433000930500006FF05FC9B7070001637AF604C8
:1043400093560601130300016FF0DFD293050000BE
:10435000130510006FF05FC7138505006FF01FE9AC
:10436000938506006FF05FF493070E006FF05FE433
:10437000930703006FF09FEF1305E5FFB387170165
:104380006FF09FD51305E5FFB38717016FF05FBF8F
:1043900093568601130380016FF0DFCD13080600EA
:1043A00093080500138705006390060E63FEC5128F
:1043B000B7070100636EF61EB70700019306800180
:1043C0006374F60093060001B73701803353D600BB
:1043D000938747C6B387670083C7070013030002AC
:1043E000B387D700B306F340630CF3003397D500CF
:1043F000B357F5003318D60033E7E700B318D500FC
:10440000135608013355C7029316080193D60601C7
:1044100093D708013377C702B385A60213170701A4
:10442000B3E7E70063FCB700B307F8001307F5FF35
:1044300063E4070163E0B73E13050700B387B740A5
:1044400033D7C7029398080193D80801B3F7C7027E
:10445000B386E60293970701B3E8F80063FED8003D
:10446000B30818019307F7FF63E608011307E7FF96
:1044700063E4D80013870700131505013365E500D1
:10448000930500006780000063F8D50093050000E5
:104490001305000067800000B707010063E8F61EFF
:1044A000B70700011308800163F4F6001308000148
:1044B000B737018033D70601938747C6B387E70034
:1044C00003C7070093070002330707013388E7405B
:1044D0006396E71C63E4B6303335C5001335150029
:1044E0009305000067800000630C060CB70701000D
:1044F000637CF62C13370610133717001317370099
:10450000B356E600B7370180938747C6B387D70015
:1045100083C7070093060002B387E700B38EF64017
:104520006394F60CB387C540935606011316060133
:10453000135606019305100033D5D70213D708018F
:10454000B3F7D7023303C50293970701B367F700A8
:1045500063FC6700B307F8001307F5FF63E4070186
:1045600063E4672A13050700B387674033D7D70290
:104570009398080193D80801B3F7D7023306C7020E
:1045800093970701B3E8F80063FEC800B308180169
:104590009307F7FF63E608011307E7FF63E4C8002A
:1045A00013870700131505013365E50067800000D8
:1045B0009336061093B61600939636006FF0DFE040
:1045C000B737018093060000938747C6B387D700AB
:1045D00083C707001307000093060002B387E700B4
:1045E000B38EF640E380F6F43318D60133D3F500EA
:1045F00093560801335ED30213160801B395D50113
:1046000013560601B357F500B3E7B70013D70701F8
:10461000B318D5013373D302B305C60313130301D3
:1046200033676700637EB7003307E8001305FEFFBA
:104630006364071D6372B71C130EEEFF3307070197
:104640003307B7403355D7029397070193D7070134
:104650003377D7023303A60213170701B3E7E70046
:1046600063FE6700B307F8001307F5FF63EE071753
:1046700063FC67161305E5FFB387070193150E0169
:10468000B3876740B3E5A5006FF01FEB13B80610C2
:1046900013381800131838006FF09FE1335EE600FE
:1046A000B3960601336EDE00B3D8E500935E0E01CB
:1046B000B3D7D80313130E01B395050113530301A8
:1046C0003357E5003367B7009356070133160601E9
:1046D000B3F8D803B305F30293980801B3E61601C3
:1046E00063FEB600B306DE009388F7FF63EAC611E7
:1046F00063F8B6109387E7FFB386C601B386B6406A
:10470000B3D5D6031317070113570701B3F6D60322
:10471000B308B302939606013367D700637E17018F
:104720003307EE009386F5FF6364C70D6372170DC0
:104730009385E5FF3307C70193970701B70E010083
:10474000B3E7B7009386FEFFB3F5D70013D3070195
:10475000B376D60013560601338ED50233071741C0
:10476000B306D30293580E01B385C502B385D500B5
:10477000B385B8003303C30263F4D5003303D30118
:1047800093D60501B3866600636AD7026308D70033
:10479000138507009305000067800000B70601003D
:1047A0009386F6FF33F7D50013170701337EDE003B
:1047B000331505013307C701E37CE5FC1385F7FFDB
:1047C0009305000067800000B7070001637AF604D4
:1047D00093560601130700016FF0DFD29305000026
:1047E0001305100067800000130507006FF01FE934
:1047F000938506006FF05FF4130E05006FF05FE421
:10480000938708006FF09FEF1305E5FFB38707015B
:104810006FF09FD51305E5FFB38707016FF01FC247
:1048200093568601130780016FF0DFCD93050500D5
:104830009306000013060000130500006F10904956
:10484000130101FF9305000023248100232611009A
:1048500013040500EF10905183A781F563840700CE
:10486000E780070013050400EFB09FE493050500FF
:1048700003A541F46F0000019305050003A541F471
:104880006F109075130101FD232E310123261102B3
:104890002324810223229102232021039387B50040
:1048A00013076001930905006360F708930700018F
:1048B00063E0B720EF0000789307800193052000A4
:1048C0009304000113898182B307F90003A4470010
:1048D000138787FF6300E434832744008326C400E2
:1048E0000326840093F7C7FFB307F40003A747002C
:1048F0002326D60023A4C6001367170013850900DA
:1049000023A2E700EF004073130584008320C10257
:104910000324810283244102032901028329C10166
:10492000130101036780000093F487FF63C2071837
:1049300063E0B418EF0000709307701F63F6973EB2
:1049400093D79400638E071613074000636CF73209
:1049500093D76400938597031388870313963500D4
:10496000138981823306C90003244600130686FF9B
:10497000630886021305F0006F0040018326C4001F
:1049800063560728630ED60013840600832744006D
:1049900093F7C7FF33879740E352E5FE930508007E
:1049A0000324090193088900630E1425832744001A
:1049B0009306F00093F7C7FF3387974063CCE63642
:1049C000232A190123281901635007341307F01F04
:1049D000032549006368F72413F787FF130787004F
:1049E0003307E9008326070013D65700930710000A
:1049F000B397C7003365F500930787FF2326F400BC
:104A00002324D4002322A9002320870023A6860084
:104A100093D72540130610003316F600636AC50AC3
:104A2000B377A600639407021316160093F5C5FF2B
:104A3000B377A60093854500639A07001316160006
:104A4000B377A60093854500E38A07FE1308F000BC
:104A50001393350033036900130503008327C50052
:104A6000138E05006302F52403A747001384070093
:104A700083A7C7001377C7FFB30697406342D824C4
:104A8000E3C206FE3307E4008326470003268400C2
:104A90001385090093E616002322D7002326F6008B
:104AA00023A4C700EF004059130584006FF01FE6F0
:104AB0009307C00023A0F900130500006FF01FE565
:104AC00013060020930500041308F0036FF05FE95C
:104AD00003248900232861018327440013FBC7FFB7
:104AE00063689B0033079B409307F00063CAE70CA1
:104AF00023229101232A510103A7C1F383AA41F57F
:104B0000232C4101232671019307F0FF330A64012E
:104B1000B38A54016306F73CB71700009387F70088
:104B2000B38AFA00B7F7FFFFB3FAFA0093850A00D9
:104B300013850900EF10804D9307F0FF930B0500DC
:104B4000630AF54423248101636E4523138C81F6A7
:104B500083250C00B385BA002320BC001387050011
:104B60006316AA2A931745016392072A832B8900AB
:104B7000B3075B0193E7170023A2FB0083A601F5AF
:104B800063F4B60023A8B1F483A6C1F463F4B600BD
:104B900023A6B1F4032C810013840B0093F7C7FF05
:104BA0003387974063EA97389307F00063D6E73876
:104BB000032A8101832A4101832BC100832C4100F8
:104BC00093E714002322F400B304940023249900F3
:104BD000136717001385090023A2E400EF00C04506
:104BE0008320C1021305840003248102032B0101E9
:104BF00083244102032901028329C1011301010316
:104C000067800000032549006FF09FE003268400C1
:104C10006FF09FCD03A4C70093852500E38287D85A
:104C20006FF09FCB13D797009306400063F2E61412
:104C30009306400163E4E6321306C7059306B70501
:104C4000131636003306C90003270600130686FF35
:104C50006318E6006F004029032787006308E60019
:104C60008326470093F6C6FFE3E8D7FE0326C70076
:104C70002326C4002324E40023248600232687005F
:104C80006FF01FD9130740016378F7101307400531
:104C90006364F72E93D7C4009385F7061388E7065D
:104CA000139635006FF0DFCB130E1E0093773E0096
:104CB00013058500638007108327C5006FF09FDA16
:104CC0000326840093E514002322B4002326F60073
:104CD00023A4C700B3049400232A99002328990031
:104CE00093E7160023A6140123A4140123A2F400C1
:104CF0003307E400138509002320D700EF00C033F9
:104D0000130584006FF09FC0B307F40003A74700AA
:104D1000138509001367170023A2E700EF00C031D5
:104D2000130584006FF09FBE93D5340093878400F1
:104D30006FF05FB993E614002322D400B30494000B
:104D4000232A9900232899009366170023A61401AB
:104D500023A4140123A2D400B307F400138509008F
:104D600023A0E700EF00402D130584006FF01FBA69
:104D700013D76700130697039306870313163600AD
:104D80006FF05FEC630C240703248900032C81007F
:104D9000832744006FF09FE09385C7051388B7050C
:104DA000139635006FF0DFBB832783009385F5FFF3
:104DB000639E672693F73500130383FFE39607FE90
:104DC000032749009347F6FFB3F7E7002322F900D2
:104DD00013161600E3EEC7CEE30C06CE3377F600CB
:104DE000631A0700131616003377F600130E4E00F1
:104DF000E30A07FE93050E006FF09FC5138C81F642
:104E000003270C003387EA002320EC0083A6C1F3BC
:104E10009307F0FF6386F618B3874B41B387E7002B
:104E20002320FC0093FC7B00638C0C0CB38B9B4118
:104E3000B717000093878700938B8B00B38597414A
:104E4000B38A5B01B38555419395450113DA45015A
:104E500093050A0013850900EF10401B9307F0FF2C
:104E60006300F51833057541B30A450103270C00AB
:104E70002324790193E71A00B305EA002320BC003C
:104E800023A2FB00E30C24CF9306F00063F0660B33
:104E90000327440093074BFF93F787FF137717000F
:104EA0003367F7002322E400130650003307F400B1
:104EB0002322C7002324C70063E6F60083A74B0024
:104EC0006FF0DFCB9305840013850900EF10D0103D
:104ED000832B890083250C0083A74B006FF01FCA2A
:104EE000938A0A016FF09FC493D62640930710005F
:104EF000B397D7003365F5002322A9006FF05FD781
:104F0000B3855B01B305B0409395450113DA4501C4
:104F100093050A0013850900EF10400F9307F0FF77
:104F2000E312F5F4130A00006FF05FF4032C810024
:104F30009307100023A2FB0013850900EF00C00FA8
:104F400013050000032A8101832A4101032B01017B
:104F5000832BC100832C41006FF05F9B93064005BB
:104F600063E4E60413D7C7001306F7069306E706C3
:104F7000131636006FF01FCD130740156364F70456
:104F800093D7F40093858707138877071396350026
:104F90006FF01F9D03248900832744006FF01FC01A
:104FA00023AE71F36FF01FE89306401563E4E60447
:104FB00013D7F700130687079306770713163600F3
:104FC0006FF05FC8130740556364F70493D724015B
:104FD0009385D7071388C707139635006FF05F983E
:104FE000938C8CFFB38A9A01B38A7A41130A00002A
:104FF0006FF0DFE79306405563E4E60213D727011D
:105000001306D7079306C707131636006FF09FC322
:105010001306803F9305F0071308E0076FF05F94D5
:105020001306803F9306E0076FF0DFC18327490036
:105030006FF01FDA67800000678000001305000032
:1050400067800000B7A50080138601C3938585BBE8
:10505000138501C46F000041130101FF8325450042
:10506000232481002322910023261100138401F9B7
:105070009304050063848500EF40103483A5840009
:10508000930784066386F50013850400EF40D03251
:1050900083A5C4001304040D638E850003248100DE
:1050A0008320C10013850400832441001301010102
:1050B0006F4090308320C10003248100832441008D
:1050C00013010101678000001305000067800000E4
:1050D000130101FE232C8100B7570080138401F9CE
:1050E00093874704232E1100232A910023282101AE
:1050F000232631012324410123ACF1F4130680005F
:1051000093074000930500001305C4052326F4000F
:105110002320040023220400232404002322040665
:1051200023280400232A0400232C0400EF10C009C4
:10513000B7070100376A0080B769008037690080CF
:10514000B7640080130A0A959389499B1309C9A380
:10515000938444AB93879700130680009305000067
:105160001305440C23204403232234032324240363
:1051700023269402232AF406232E840023240406E3
:1051800023260406232804062326040C232C0406C5
:10519000232E040623200408EF100003B7070200A3
:1051A00013078406938727011305C4121306800092
:1051B00093050000232444092326340923282409C5
:1051C000232A9408232EF40C2322E4082328040C19
:1051D000232A040C232C040C232A04122320040E5B
:1051E0002322040E2324040EEF00107E9307040DE7
:1051F0002328440F232A340F232C240F232E940E0C
:105200008320C1012326F40E03248101832441015C
:10521000032901018329C100032A8100130101022E
:105220006780000083A781F5130101FE2326310169
:10523000232E1100232C8100232A910023282101F1
:10524000930905006386070E138901C39304F0FFD9
:1052500083274900032489009387F7FF63D8070059
:105260006F00000813048406638C97060317C400BC
:105270009387F7FFE31807FEB707FFFF9387170031
:105280002326F40023220406232004002324040000
:105290002322040023280400232A0400232C0400D2
:1052A00013068000930500001305C405EF00D071BC
:1052B00023280402232A04022322040423240404AE
:1052C0008320C101130504000324810183244101CB
:1052D000032901018329C100130101026780000035
:1052E0000324090063060400130904006FF05FF64D
:1052F0009305C01A13850900EFF0CFD813040500F9
:10530000630C05021305C500930740002320040029
:105310002322F4002324A4001306001A930500009E
:10532000EF00906A23208900130904006FF05FF2F8
:10533000EFF01FDA6FF05FF1232009009307C00040
:1053400023A0F9006FF0DFF783274503638407008C
:105350006780000003A781F5B75700809387870512
:10536000232AF502E31607FE6FF09FD66780000040
:1053700067800000B7550080138601C39385C5037D
:10538000130500006F00000EB7550080138601C39F
:105390009385850C130500006F00C00C130101FEFE
:1053A000232C8100232E1100130405006306050041
:1053B00083274503638C0700130504000324810140
:1053C0008320C101130101026F0080372326C10031
:1053D0002324B100EFF05FF71305040003248101DB
:1053E0000326C100832581008320C101130101022E
:1053F0006F000035130101FE232A910083A441F4BC
:10540000232C8100232E11001304050013860500B0
:105410006386040083A744036380070293050400A6
:10542000032481018320C1011385040083244101E9
:10543000130101026F00C030138504002326B10060
:10544000EFF09FF093050400032481010326C100BF
:105450008320C1011385040083244101130101024B
:105460006F00002E130101FD23202103232E3101A3
:10547000232C4101232A5101232861012326710194
:10548000232611022324810223229102130B0500FB
:10549000938B0500930A0600130A0000930910007D
:1054A0001309F0FF83A44A0003A48A009384F4FF45
:1054B00063C804028357C40063FEF9008317E40045
:1054C0009305040013050B0063862701E7800B009A
:1054D000336AAA009384F4FF13048406E39C24FD3A
:1054E00083AA0A00E3900AFC8320C10203248102FC
:1054F00083244102032901028329C101832A410136
:10550000032B0101832BC10013050A00032A81012B
:105510001301010367800000130101FB2320210513
:105520003389C6029307C1012322F10293071000B9
:105530002324810423229104232E3103232EB1003E
:10554000232611042324F1022320210323262103EF
:1055500093090600138406009304050093050700D1
:105560006306050083274503638607068397C50006
:10557000139727016342070203A74506B7E6FFFF1B
:105580009386F6FF37260000B3E7C7003377D700CE
:105590002396F50023A2E5061306410213850400B5
:1055A000EF405025630805008327C1023309F94005
:1055B000335439038320C1041305040003248104F8
:1055C00083244104032901048329C1031301010534
:1055D000678000002326E100EFF01FD78325C1007C
:1055E0006FF0DFF8130101FB23229104B384C5029D
:1055F000232E310383A941F49307C1012322F10231
:10560000930710002324810423202105232611045D
:10561000232EA1002324F1022320910223269102AC
:1056200013890500130406009385060063860900AC
:1056300083A74903638607068397C500139727014D
:105640006342070203A74506B7E6FFFF9386F6FF0E
:1056500037260000B3E7C7003377D7002396F5005D
:1056600023A2E5061306410213850900EF409018B6
:10567000630805008327C102B384F44033D42403B4
:105680008320C104130504000324810483244104FE
:10569000032901048329C103130101056780000068
:1056A000138509002326D100EFF01FCA8325C1000E
:1056B0006FF09FF8130101FC2324C1022326D102BD
:1056C0002328E102232AF102232C0103232E1103B4
:1056D000138605008325850093068102232E110081
:1056E0002326D100EF10803F8320C1011301010464
:1056F0006780000003A341F4130101FC2324C102CD
:105700002326D1022322B1022328E102232AF10217
:10571000232C0103232E11038325830093064102CA
:105720001306050013050300232E11002326D100C4
:10573000EF10C03A8320C10113010104678000000B
:10574000130101FE232C8100232E110013040500F8
:1057500063060500832745036380070683278600C9
:105760009387F7FF2324F60063DC070003278601F5
:1057700063CAE70293F7F50F1307A0006384E702FB
:105780008327060013F5F50F138717002320E60083
:105790002380B7008320C10103248101130101028A
:1057A0006780000013050400032481018320C101E8
:1057B000130101026F0080302326C1002324B100B1
:1057C000EFF09FB80326C100832581006FF01FF919
:1057D000130101FE232A210103A941F4232C910086
:1057E000232E110093040500630609008327490353
:1057F0006388070683A785009387F7FF23A4F50036
:1058000063DC070003A7850163CCE70293F7F40F7D
:105810001307A0006386E70283A7050013F5F40FC2
:105820001387170023A0E500238097008320C10180
:1058300083248101032941011301010267800000D3
:105840008320C10113860500130509009385040018
:105850000329410183248101130101026F00002605
:10586000130509002326B100EFF01FAE8325C10008
:105870006FF05FF8130101FC232C81021304050073
:1058800013850500232A9102232E1102938405001B
:10589000EF00903BB7370180938747D62324F1026E
:1058A000930710002326F102032744039307010204
:1058B00093061500232AF10093072000232091026C
:1058C0002322A102232ED100232CF1008325840062
:1058D000630007068397C5001397270163420702F9
:1058E00003A74506B7E6FFFF9386F6FF37260000BD
:1058F000B3E7C7003377D7002396F50023A2E50668
:105900001306410113050400EF40C06E8320C1035C
:1059100003248103133515003305A0401375B5002A
:10592000832441031305F5FF130101046780000080
:10593000130504002326B100EFF01FA18325C10049
:105940006FF05FF99305050003A541F46FF09FF236
:10595000130101FF23248100138405008395E500D2
:1059600023261100EF00006463400502832704052D
:105970008320C100B387A7002328F40403248100F7
:1059800013010101678000008357C40037F7FFFF50
:105990001307F7FFB3F7E7008320C1002316F400D5
:1059A000032481001301010167800000130500003A
:1059B000678000008397C500130101FE232C81003E
:1059C000232A91002328210123263101232E1100AF
:1059D00013F707101384050093040500130906004C
:1059E000938906006310070437F7FFFF1307F7FFDB
:1059F000B3F7E7008315E4002316F40003248101C4
:105A00008320C10193860900130609008329C10080
:105A100003290101138504008324410113010102BC
:105A20006F0080648395E500930620001306000054
:105A3000EF00C0508317C4006FF01FFB130101FF7C
:105A400023248100138405008395E500232611009B
:105A5000EF00C04E9307F0FF6308F5028357C400C0
:105A6000371700008320C100B3E7E70093970701D1
:105A700093D707412328A4042316F40003248100AC
:105A800013010101678000008357C40037F7FFFF4F
:105A90001307F7FFB3F7E7009397070193D7074181
:105AA0008320C1002316F4000324810013010101A7
:105AB000678000008395E5006F004036130101FE0A
:105AC000232C8100232A910023282101232E110059
:105AD00013090500938405001304060063060500FE
